{
  "_format": "hh-sol-artifact-1",
  "contractName": "Transaction",
  "sourceName": "contracts/Transactions.sol",
  "abi": [
    {
      "anonymous": false,
      "inputs": [
        {
          "indexed": false,
          "internalType": "address",
          "name": "from",
          "type": "address"
        },
        {
          "indexed": false,
          "internalType": "address",
          "name": "receiver",
          "type": "address"
        },
        {
          "indexed": false,
          "internalType": "uint256",
          "name": "amount",
          "type": "uint256"
        },
        {
          "indexed": false,
          "internalType": "uint256",
          "name": "timestamp",
          "type": "uint256"
        },
        {
          "indexed": false,
          "internalType": "string",
          "name": "message",
          "type": "string"
        }
      ],
      "name": "Transfer",
      "type": "event"
    },
    {
      "inputs": [
        {
          "internalType": "address payable",
          "name": "receiver",
          "type": "address"
        },
        {
          "internalType": "uint256",
          "name": "amount",
          "type": "uint256"
        },
        {
          "internalType": "string",
          "name": "message",
          "type": "string"
        }
      ],
      "name": "blockformation",
      "outputs": [],
      "stateMutability": "nonpayable",
      "type": "function"
    },
    {
      "inputs": [],
      "name": "getallTransaction",
      "outputs": [
        {
          "components": [
            {
              "internalType": "address",
              "name": "from",
              "type": "address"
            },
            {
              "internalType": "address",
              "name": "receiver",
              "type": "address"
            },
            {
              "internalType": "uint256",
              "name": "amount",
              "type": "uint256"
            },
            {
              "internalType": "string",
              "name": "message",
              "type": "string"
            },
            {
              "internalType": "uint256",
              "name": "timestamp",
              "type": "uint256"
            }
          ],
          "internalType": "struct Transaction.transferStruct[]",
          "name": "",
          "type": "tuple[]"
        }
      ],
      "stateMutability": "view",
      "type": "function"
    },
    {
      "inputs": [],
      "name": "gettransaction",
      "outputs": [
        {
          "internalType": "uint256",
          "name": "",
          "type": "uint256"
        }
      ],
      "stateMutability": "view",
      "type": "function"
    }
  ],
  "bytecode": "0x6080604052348015600f57600080fd5b50610cfc8061001f6000396000f3fe608060405234801561001057600080fd5b50600436106100415760003560e01c80638f14f71514610046578063d3177fbe14610064578063e60ab1c414610080575b600080fd5b61004e61009e565b60405161005b9190610406565b60405180910390f35b61007e60048036038101906100799190610605565b6100a7565b005b61008861023c565b604051610095919061085b565b60405180910390f35b60008054905090565b60016000808282546100b991906108ac565b9250508190555060016040518060a001604052803373ffffffffffffffffffffffffffffffffffffffff1681526020018573ffffffffffffffffffffffffffffffffffffffff16815260200184815260200183815260200142815250908060018154018082558091505060019003906000526020600020906005020160009091909190915060008201518160000160006101000a81548173ffffffffffffffffffffffffffffffffffffffff021916908373ffffffffffffffffffffffffffffffffffffffff16021790555060208201518160010160006101000a81548173ffffffffffffffffffffffffffffffffffffffff021916908373ffffffffffffffffffffffffffffffffffffffff1602179055506040820151816002015560608201518160030190816101eb9190610aec565b506080820151816004015550507f6f61ee1206c525dcbefe79039d2f7b768c9ad70030c51ae6623cd74492e8a6d3338484428560405161022f959493929190610c6c565b60405180910390a1505050565b60606001805480602002602001604051908101604052809291908181526020016000905b828210156103e457838290600052602060002090600502016040518060a00160405290816000820160009054906101000a900473ffffffffffffffffffffffffffffffffffffffff1673ffffffffffffffffffffffffffffffffffffffff1673ffffffffffffffffffffffffffffffffffffffff1681526020016001820160009054906101000a900473ffffffffffffffffffffffffffffffffffffffff1673ffffffffffffffffffffffffffffffffffffffff1673ffffffffffffffffffffffffffffffffffffffff168152602001600282015481526020016003820180546103499061090f565b80601f01602080910402602001604051908101604052809291908181526020018280546103759061090f565b80156103c25780601f10610397576101008083540402835291602001916103c2565b820191906000526020600020905b8154815290600101906020018083116103a557829003601f168201915b5050505050815260200160048201548152505081526020019060010190610260565b50505050905090565b6000819050919050565b610400816103ed565b82525050565b600060208201905061041b60008301846103f7565b92915050565b6000604051905090565b600080fd5b600080fd5b600073ffffffffffffffffffffffffffffffffffffffff82169050919050565b600061046082610435565b9050919050565b61047081610455565b811461047b57600080fd5b50565b60008135905061048d81610467565b92915050565b61049c816103ed565b81146104a757600080fd5b50565b6000813590506104b981610493565b92915050565b600080fd5b600080fd5b6000601f19601f8301169050919050565b7f4e487b7100000000000000000000000000000000000000000000000000000000600052604160045260246000fd5b610512826104c9565b810181811067ffffffffffffffff82111715610531576105306104da565b5b80604052505050565b6000610544610421565b90506105508282610509565b919050565b600067ffffffffffffffff8211156105705761056f6104da565b5b610579826104c9565b9050602081019050919050565b82818337600083830152505050565b60006105a86105a384610555565b61053a565b9050828152602081018484840111156105c4576105c36104c4565b5b6105cf848285610586565b509392505050565b600082601f8301126105ec576105eb6104bf565b5b81356105fc848260208601610595565b91505092915050565b60008060006060848603121561061e5761061d61042b565b5b600061062c8682870161047e565b935050602061063d868287016104aa565b925050604084013567ffffffffffffffff81111561065e5761065d610430565b5b61066a868287016105d7565b9150509250925092565b600081519050919050565b600082825260208201905092915050565b6000819050602082019050919050565b60006106ab82610435565b9050919050565b6106bb816106a0565b82525050565b6106ca816103ed565b82525050565b600081519050919050565b600082825260208201905092915050565b60005b8381101561070a5780820151818401526020810190506106ef565b60008484015250505050565b6000610721826106d0565b61072b81856106db565b935061073b8185602086016106ec565b610744816104c9565b840191505092915050565b600060a08301600083015161076760008601826106b2565b50602083015161077a60208601826106b2565b50604083015161078d60408601826106c1565b50606083015184820360608601526107a58282610716565b91505060808301516107ba60808601826106c1565b508091505092915050565b60006107d1838361074f565b905092915050565b6000602082019050919050565b60006107f182610674565b6107fb818561067f565b93508360208202850161080d85610690565b8060005b85811015610849578484038952815161082a85826107c5565b9450610835836107d9565b925060208a01995050600181019050610811565b50829750879550505050505092915050565b6000602082019050818103600083015261087581846107e6565b905092915050565b7f4e487b7100000000000000000000000000000000000000000000000000000000600052601160045260246000fd5b60006108b7826103ed565b91506108c2836103ed565b92508282019050808211156108da576108d961087d565b5b92915050565b7f4e487b7100000000000000000000000000000000000000000000000000000000600052602260045260246000fd5b6000600282049050600182168061092757607f821691505b60208210810361093a576109396108e0565b5b50919050565b60008190508160005260206000209050919050565b60006020601f8301049050919050565b600082821b905092915050565b6000600883026109a27fffffffffffffffffffffffffffffffffffffffffffffffffffffffffffffffff82610965565b6109ac8683610965565b95508019841693508086168417925050509392505050565b6000819050919050565b60006109e96109e46109df846103ed565b6109c4565b6103ed565b9050919050565b6000819050919050565b610a03836109ce565b610a17610a0f826109f0565b848454610972565b825550505050565b600090565b610a2c610a1f565b610a378184846109fa565b505050565b5b81811015610a5b57610a50600082610a24565b600181019050610a3d565b5050565b601f821115610aa057610a7181610940565b610a7a84610955565b81016020851015610a89578190505b610a9d610a9585610955565b830182610a3c565b50505b505050565b600082821c905092915050565b6000610ac360001984600802610aa5565b1980831691505092915050565b6000610adc8383610ab2565b9150826002028217905092915050565b610af5826106d0565b67ffffffffffffffff811115610b0e57610b0d6104da565b5b610b18825461090f565b610b23828285610a5f565b600060209050601f831160018114610b565760008415610b44578287015190505b610b4e8582610ad0565b865550610bb6565b601f198416610b6486610940565b60005b82811015610b8c57848901518255600182019150602085019450602081019050610b67565b86831015610ba95784890151610ba5601f891682610ab2565b8355505b6001600288020188555050505b505050505050565b610bc7816106a0565b82525050565b6000610be8610be3610bde84610435565b6109c4565b610435565b9050919050565b6000610bfa82610bcd565b9050919050565b6000610c0c82610bef565b9050919050565b610c1c81610c01565b82525050565b600082825260208201905092915050565b6000610c3e826106d0565b610c488185610c22565b9350610c588185602086016106ec565b610c61816104c9565b840191505092915050565b600060a082019050610c816000830188610bbe565b610c8e6020830187610c13565b610c9b60408301866103f7565b610ca860608301856103f7565b8181036080830152610cba8184610c33565b9050969550505050505056fea26469706673582212202cbf823ab30823923f7a8329db553831f32ed80672cd2404aa381db2503269b664736f6c634300081b0033",
  "linkReferences": {},
  "deployedLinkReferences": {}
}