{
  "contracts/Transactions.sol": {
    "Transaction": {
      "abi": [
        {
          "anonymous": false,
          "inputs": [
            {
              "indexed": false,
              "internalType": "address",
              "name": "from",
              "type": "address"
            },
            {
              "indexed": false,
              "internalType": "address",
              "name": "receiver",
              "type": "address"
            },
            {
              "indexed": false,
              "internalType": "uint256",
              "name": "amount",
              "type": "uint256"
            },
            {
              "indexed": false,
              "internalType": "uint256",
              "name": "timestamp",
              "type": "uint256"
            },
            {
              "indexed": false,
              "internalType": "string",
              "name": "message",
              "type": "string"
            }
          ],
          "name": "Transfer",
          "type": "event"
        },
        {
          "inputs": [
            {
              "internalType": "address payable",
              "name": "receiver",
              "type": "address"
            },
            {
              "internalType": "uint256",
              "name": "amount",
              "type": "uint256"
            },
            {
              "internalType": "string",
              "name": "message",
              "type": "string"
            }
          ],
          "name": "blockformation",
          "outputs": [],
          "stateMutability": "nonpayable",
          "type": "function"
        },
        {
          "inputs": [],
          "name": "getallTransaction",
          "outputs": [
            {
              "components": [
                {
                  "internalType": "address",
                  "name": "from",
                  "type": "address"
                },
                {
                  "internalType": "address",
                  "name": "receiver",
                  "type": "address"
                },
                {
                  "internalType": "uint256",
                  "name": "amount",
                  "type": "uint256"
                },
                {
                  "internalType": "string",
                  "name": "message",
                  "type": "string"
                },
                {
                  "internalType": "uint256",
                  "name": "timestamp",
                  "type": "uint256"
                }
              ],
              "internalType": "struct Transaction.transferStruct[]",
              "name": "",
              "type": "tuple[]"
            }
          ],
          "stateMutability": "view",
          "type": "function"
        },
        {
          "inputs": [],
          "name": "gettransaction",
          "outputs": [
            {
              "internalType": "uint256",
              "name": "",
              "type": "uint256"
            }
          ],
          "stateMutability": "view",
          "type": "function"
        }
      ],
      "evm": {
        "bytecode": {
          "linkReferences": {},
          "object": "6080604052348015600f57600080fd5b50610cfc8061001f6000396000f3fe608060405234801561001057600080fd5b50600436106100415760003560e01c80638f14f71514610046578063d3177fbe14610064578063e60ab1c414610080575b600080fd5b61004e61009e565b60405161005b9190610406565b60405180910390f35b61007e60048036038101906100799190610605565b6100a7565b005b61008861023c565b604051610095919061085b565b60405180910390f35b60008054905090565b60016000808282546100b991906108ac565b9250508190555060016040518060a001604052803373ffffffffffffffffffffffffffffffffffffffff1681526020018573ffffffffffffffffffffffffffffffffffffffff16815260200184815260200183815260200142815250908060018154018082558091505060019003906000526020600020906005020160009091909190915060008201518160000160006101000a81548173ffffffffffffffffffffffffffffffffffffffff021916908373ffffffffffffffffffffffffffffffffffffffff16021790555060208201518160010160006101000a81548173ffffffffffffffffffffffffffffffffffffffff021916908373ffffffffffffffffffffffffffffffffffffffff1602179055506040820151816002015560608201518160030190816101eb9190610aec565b506080820151816004015550507f6f61ee1206c525dcbefe79039d2f7b768c9ad70030c51ae6623cd74492e8a6d3338484428560405161022f959493929190610c6c565b60405180910390a1505050565b60606001805480602002602001604051908101604052809291908181526020016000905b828210156103e457838290600052602060002090600502016040518060a00160405290816000820160009054906101000a900473ffffffffffffffffffffffffffffffffffffffff1673ffffffffffffffffffffffffffffffffffffffff1673ffffffffffffffffffffffffffffffffffffffff1681526020016001820160009054906101000a900473ffffffffffffffffffffffffffffffffffffffff1673ffffffffffffffffffffffffffffffffffffffff1673ffffffffffffffffffffffffffffffffffffffff168152602001600282015481526020016003820180546103499061090f565b80601f01602080910402602001604051908101604052809291908181526020018280546103759061090f565b80156103c25780601f10610397576101008083540402835291602001916103c2565b820191906000526020600020905b8154815290600101906020018083116103a557829003601f168201915b5050505050815260200160048201548152505081526020019060010190610260565b50505050905090565b6000819050919050565b610400816103ed565b82525050565b600060208201905061041b60008301846103f7565b92915050565b6000604051905090565b600080fd5b600080fd5b600073ffffffffffffffffffffffffffffffffffffffff82169050919050565b600061046082610435565b9050919050565b61047081610455565b811461047b57600080fd5b50565b60008135905061048d81610467565b92915050565b61049c816103ed565b81146104a757600080fd5b50565b6000813590506104b981610493565b92915050565b600080fd5b600080fd5b6000601f19601f8301169050919050565b7f4e487b7100000000000000000000000000000000000000000000000000000000600052604160045260246000fd5b610512826104c9565b810181811067ffffffffffffffff82111715610531576105306104da565b5b80604052505050565b6000610544610421565b90506105508282610509565b919050565b600067ffffffffffffffff8211156105705761056f6104da565b5b610579826104c9565b9050602081019050919050565b82818337600083830152505050565b60006105a86105a384610555565b61053a565b9050828152602081018484840111156105c4576105c36104c4565b5b6105cf848285610586565b509392505050565b600082601f8301126105ec576105eb6104bf565b5b81356105fc848260208601610595565b91505092915050565b60008060006060848603121561061e5761061d61042b565b5b600061062c8682870161047e565b935050602061063d868287016104aa565b925050604084013567ffffffffffffffff81111561065e5761065d610430565b5b61066a868287016105d7565b9150509250925092565b600081519050919050565b600082825260208201905092915050565b6000819050602082019050919050565b60006106ab82610435565b9050919050565b6106bb816106a0565b82525050565b6106ca816103ed565b82525050565b600081519050919050565b600082825260208201905092915050565b60005b8381101561070a5780820151818401526020810190506106ef565b60008484015250505050565b6000610721826106d0565b61072b81856106db565b935061073b8185602086016106ec565b610744816104c9565b840191505092915050565b600060a08301600083015161076760008601826106b2565b50602083015161077a60208601826106b2565b50604083015161078d60408601826106c1565b50606083015184820360608601526107a58282610716565b91505060808301516107ba60808601826106c1565b508091505092915050565b60006107d1838361074f565b905092915050565b6000602082019050919050565b60006107f182610674565b6107fb818561067f565b93508360208202850161080d85610690565b8060005b85811015610849578484038952815161082a85826107c5565b9450610835836107d9565b925060208a01995050600181019050610811565b50829750879550505050505092915050565b6000602082019050818103600083015261087581846107e6565b905092915050565b7f4e487b7100000000000000000000000000000000000000000000000000000000600052601160045260246000fd5b60006108b7826103ed565b91506108c2836103ed565b92508282019050808211156108da576108d961087d565b5b92915050565b7f4e487b7100000000000000000000000000000000000000000000000000000000600052602260045260246000fd5b6000600282049050600182168061092757607f821691505b60208210810361093a576109396108e0565b5b50919050565b60008190508160005260206000209050919050565b60006020601f8301049050919050565b600082821b905092915050565b6000600883026109a27fffffffffffffffffffffffffffffffffffffffffffffffffffffffffffffffff82610965565b6109ac8683610965565b95508019841693508086168417925050509392505050565b6000819050919050565b60006109e96109e46109df846103ed565b6109c4565b6103ed565b9050919050565b6000819050919050565b610a03836109ce565b610a17610a0f826109f0565b848454610972565b825550505050565b600090565b610a2c610a1f565b610a378184846109fa565b505050565b5b81811015610a5b57610a50600082610a24565b600181019050610a3d565b5050565b601f821115610aa057610a7181610940565b610a7a84610955565b81016020851015610a89578190505b610a9d610a9585610955565b830182610a3c565b50505b505050565b600082821c905092915050565b6000610ac360001984600802610aa5565b1980831691505092915050565b6000610adc8383610ab2565b9150826002028217905092915050565b610af5826106d0565b67ffffffffffffffff811115610b0e57610b0d6104da565b5b610b18825461090f565b610b23828285610a5f565b600060209050601f831160018114610b565760008415610b44578287015190505b610b4e8582610ad0565b865550610bb6565b601f198416610b6486610940565b60005b82811015610b8c57848901518255600182019150602085019450602081019050610b67565b86831015610ba95784890151610ba5601f891682610ab2565b8355505b6001600288020188555050505b505050505050565b610bc7816106a0565b82525050565b6000610be8610be3610bde84610435565b6109c4565b610435565b9050919050565b6000610bfa82610bcd565b9050919050565b6000610c0c82610bef565b9050919050565b610c1c81610c01565b82525050565b600082825260208201905092915050565b6000610c3e826106d0565b610c488185610c22565b9350610c588185602086016106ec565b610c61816104c9565b840191505092915050565b600060a082019050610c816000830188610bbe565b610c8e6020830187610c13565b610c9b60408301866103f7565b610ca860608301856103f7565b8181036080830152610cba8184610c33565b9050969550505050505056fea26469706673582212202cbf823ab30823923f7a8329db553831f32ed80672cd2404aa381db2503269b664736f6c634300081b0033",
          "opcodes": "PUSH1 0x80 PUSH1 0x40 MSTORE CALLVALUE DUP1 ISZERO PUSH1 0xF JUMPI PUSH1 0x0 DUP1 REVERT JUMPDEST POP PUSH2 0xCFC DUP1 PUSH2 0x1F PUSH1 0x0 CODECOPY PUSH1 0x0 RETURN INVALID PUSH1 0x80 PUSH1 0x40 MSTORE CALLVALUE DUP1 ISZERO PUSH2 0x10 JUMPI PUSH1 0x0 DUP1 REVERT JUMPDEST POP PUSH1 0x4 CALLDATASIZE LT PUSH2 0x41 JUMPI PUSH1 0x0 CALLDATALOAD PUSH1 0xE0 SHR DUP1 PUSH4 0x8F14F715 EQ PUSH2 0x46 JUMPI DUP1 PUSH4 0xD3177FBE EQ PUSH2 0x64 JUMPI DUP1 PUSH4 0xE60AB1C4 EQ PUSH2 0x80 JUMPI JUMPDEST PUSH1 0x0 DUP1 REVERT JUMPDEST PUSH2 0x4E PUSH2 0x9E JUMP JUMPDEST PUSH1 0x40 MLOAD PUSH2 0x5B SWAP2 SWAP1 PUSH2 0x406 JUMP JUMPDEST PUSH1 0x40 MLOAD DUP1 SWAP2 SUB SWAP1 RETURN JUMPDEST PUSH2 0x7E PUSH1 0x4 DUP1 CALLDATASIZE SUB DUP2 ADD SWAP1 PUSH2 0x79 SWAP2 SWAP1 PUSH2 0x605 JUMP JUMPDEST PUSH2 0xA7 JUMP JUMPDEST STOP JUMPDEST PUSH2 0x88 PUSH2 0x23C JUMP JUMPDEST PUSH1 0x40 MLOAD PUSH2 0x95 SWAP2 SWAP1 PUSH2 0x85B JUMP JUMPDEST PUSH1 0x40 MLOAD DUP1 SWAP2 SUB SWAP1 RETURN JUMPDEST PUSH1 0x0 DUP1 SLOAD SWAP1 POP SWAP1 JUMP JUMPDEST PUSH1 0x1 PUSH1 0x0 DUP1 DUP3 DUP3 SLOAD PUSH2 0xB9 SWAP2 SWAP1 PUSH2 0x8AC JUMP JUMPDEST SWAP3 POP POP DUP2 SWAP1 SSTORE POP PUSH1 0x1 PUSH1 0x40 MLOAD DUP1 PUSH1 0xA0 ADD PUSH1 0x40 MSTORE DUP1 CALLER PUSH20 0xFFFFFFFFFFFFFFFFFFFFFFFFFFFFFFFFFFFFFFFF AND DUP2 MSTORE PUSH1 0x20 ADD DUP6 PUSH20 0xFFFFFFFFFFFFFFFFFFFFFFFFFFFFFFFFFFFFFFFF AND DUP2 MSTORE PUSH1 0x20 ADD DUP5 DUP2 MSTORE PUSH1 0x20 ADD DUP4 DUP2 MSTORE PUSH1 0x20 ADD TIMESTAMP DUP2 MSTORE POP SWAP1 DUP1 PUSH1 0x1 DUP2 SLOAD ADD DUP1 DUP3 SSTORE DUP1 SWAP2 POP POP PUSH1 0x1 SWAP1 SUB SWAP1 PUSH1 0x0 MSTORE PUSH1 0x20 PUSH1 0x0 KECCAK256 SWAP1 PUSH1 0x5 MUL ADD PUSH1 0x0 SWAP1 SWAP2 SWAP1 SWAP2 SWAP1 SWAP2 POP PUSH1 0x0 DUP3 ADD MLOAD DUP2 PUSH1 0x0 ADD PUSH1 0x0 PUSH2 0x100 EXP DUP2 SLOAD DUP2 PUSH20 0xFFFFFFFFFFFFFFFFFFFFFFFFFFFFFFFFFFFFFFFF MUL NOT AND SWAP1 DUP4 PUSH20 0xFFFFFFFFFFFFFFFFFFFFFFFFFFFFFFFFFFFFFFFF AND MUL OR SWAP1 SSTORE POP PUSH1 0x20 DUP3 ADD MLOAD DUP2 PUSH1 0x1 ADD PUSH1 0x0 PUSH2 0x100 EXP DUP2 SLOAD DUP2 PUSH20 0xFFFFFFFFFFFFFFFFFFFFFFFFFFFFFFFFFFFFFFFF MUL NOT AND SWAP1 DUP4 PUSH20 0xFFFFFFFFFFFFFFFFFFFFFFFFFFFFFFFFFFFFFFFF AND MUL OR SWAP1 SSTORE POP PUSH1 0x40 DUP3 ADD MLOAD DUP2 PUSH1 0x2 ADD SSTORE PUSH1 0x60 DUP3 ADD MLOAD DUP2 PUSH1 0x3 ADD SWAP1 DUP2 PUSH2 0x1EB SWAP2 SWAP1 PUSH2 0xAEC JUMP JUMPDEST POP PUSH1 0x80 DUP3 ADD MLOAD DUP2 PUSH1 0x4 ADD SSTORE POP POP PUSH32 0x6F61EE1206C525DCBEFE79039D2F7B768C9AD70030C51AE6623CD74492E8A6D3 CALLER DUP5 DUP5 TIMESTAMP DUP6 PUSH1 0x40 MLOAD PUSH2 0x22F SWAP6 SWAP5 SWAP4 SWAP3 SWAP2 SWAP1 PUSH2 0xC6C JUMP JUMPDEST PUSH1 0x40 MLOAD DUP1 SWAP2 SUB SWAP1 LOG1 POP POP POP JUMP JUMPDEST PUSH1 0x60 PUSH1 0x1 DUP1 SLOAD DUP1 PUSH1 0x20 MUL PUSH1 0x20 ADD PUSH1 0x40 MLOAD SWAP1 DUP2 ADD PUSH1 0x40 MSTORE DUP1 SWAP3 SWAP2 SWAP1 DUP2 DUP2 MSTORE PUSH1 0x20 ADD PUSH1 0x0 SWAP1 JUMPDEST DUP3 DUP3 LT ISZERO PUSH2 0x3E4 JUMPI DUP4 DUP3 SWAP1 PUSH1 0x0 MSTORE PUSH1 0x20 PUSH1 0x0 KECCAK256 SWAP1 PUSH1 0x5 MUL ADD PUSH1 0x40 MLOAD DUP1 PUSH1 0xA0 ADD PUSH1 0x40 MSTORE SWAP1 DUP2 PUSH1 0x0 DUP3 ADD PUSH1 0x0 SWAP1 SLOAD SWAP1 PUSH2 0x100 EXP SWAP1 DIV PUSH20 0xFFFFFFFFFFFFFFFFFFFFFFFFFFFFFFFFFFFFFFFF AND PUSH20 0xFFFFFFFFFFFFFFFFFFFFFFFFFFFFFFFFFFFFFFFF AND PUSH20 0xFFFFFFFFFFFFFFFFFFFFFFFFFFFFFFFFFFFFFFFF AND DUP2 MSTORE PUSH1 0x20 ADD PUSH1 0x1 DUP3 ADD PUSH1 0x0 SWAP1 SLOAD SWAP1 PUSH2 0x100 EXP SWAP1 DIV PUSH20 0xFFFFFFFFFFFFFFFFFFFFFFFFFFFFFFFFFFFFFFFF AND PUSH20 0xFFFFFFFFFFFFFFFFFFFFFFFFFFFFFFFFFFFFFFFF AND PUSH20 0xFFFFFFFFFFFFFFFFFFFFFFFFFFFFFFFFFFFFFFFF AND DUP2 MSTORE PUSH1 0x20 ADD PUSH1 0x2 DUP3 ADD SLOAD DUP2 MSTORE PUSH1 0x20 ADD PUSH1 0x3 DUP3 ADD DUP1 SLOAD PUSH2 0x349 SWAP1 PUSH2 0x90F JUMP JUMPDEST DUP1 PUSH1 0x1F ADD PUSH1 0x20 DUP1 SWAP2 DIV MUL PUSH1 0x20 ADD PUSH1 0x40 MLOAD SWAP1 DUP2 ADD PUSH1 0x40 MSTORE DUP1 SWAP3 SWAP2 SWAP1 DUP2 DUP2 MSTORE PUSH1 0x20 ADD DUP3 DUP1 SLOAD PUSH2 0x375 SWAP1 PUSH2 0x90F JUMP JUMPDEST DUP1 ISZERO PUSH2 0x3C2 JUMPI DUP1 PUSH1 0x1F LT PUSH2 0x397 JUMPI PUSH2 0x100 DUP1 DUP4 SLOAD DIV MUL DUP4 MSTORE SWAP2 PUSH1 0x20 ADD SWAP2 PUSH2 0x3C2 JUMP JUMPDEST DUP3 ADD SWAP2 SWAP1 PUSH1 0x0 MSTORE PUSH1 0x20 PUSH1 0x0 KECCAK256 SWAP1 JUMPDEST DUP2 SLOAD DUP2 MSTORE SWAP1 PUSH1 0x1 ADD SWAP1 PUSH1 0x20 ADD DUP1 DUP4 GT PUSH2 0x3A5 JUMPI DUP3 SWAP1 SUB PUSH1 0x1F AND DUP3 ADD SWAP2 JUMPDEST POP POP POP POP POP DUP2 MSTORE PUSH1 0x20 ADD PUSH1 0x4 DUP3 ADD SLOAD DUP2 MSTORE POP POP DUP2 MSTORE PUSH1 0x20 ADD SWAP1 PUSH1 0x1 ADD SWAP1 PUSH2 0x260 JUMP JUMPDEST POP POP POP POP SWAP1 POP SWAP1 JUMP JUMPDEST PUSH1 0x0 DUP2 SWAP1 POP SWAP2 SWAP1 POP JUMP JUMPDEST PUSH2 0x400 DUP2 PUSH2 0x3ED JUMP JUMPDEST DUP3 MSTORE POP POP JUMP JUMPDEST PUSH1 0x0 PUSH1 0x20 DUP3 ADD SWAP1 POP PUSH2 0x41B PUSH1 0x0 DUP4 ADD DUP5 PUSH2 0x3F7 JUMP JUMPDEST SWAP3 SWAP2 POP POP JUMP JUMPDEST PUSH1 0x0 PUSH1 0x40 MLOAD SWAP1 POP SWAP1 JUMP JUMPDEST PUSH1 0x0 DUP1 REVERT JUMPDEST PUSH1 0x0 DUP1 REVERT JUMPDEST PUSH1 0x0 PUSH20 0xFFFFFFFFFFFFFFFFFFFFFFFFFFFFFFFFFFFFFFFF DUP3 AND SWAP1 POP SWAP2 SWAP1 POP JUMP JUMPDEST PUSH1 0x0 PUSH2 0x460 DUP3 PUSH2 0x435 JUMP JUMPDEST SWAP1 POP SWAP2 SWAP1 POP JUMP JUMPDEST PUSH2 0x470 DUP2 PUSH2 0x455 JUMP JUMPDEST DUP2 EQ PUSH2 0x47B JUMPI PUSH1 0x0 DUP1 REVERT JUMPDEST POP JUMP JUMPDEST PUSH1 0x0 DUP2 CALLDATALOAD SWAP1 POP PUSH2 0x48D DUP2 PUSH2 0x467 JUMP JUMPDEST SWAP3 SWAP2 POP POP JUMP JUMPDEST PUSH2 0x49C DUP2 PUSH2 0x3ED JUMP JUMPDEST DUP2 EQ PUSH2 0x4A7 JUMPI PUSH1 0x0 DUP1 REVERT JUMPDEST POP JUMP JUMPDEST PUSH1 0x0 DUP2 CALLDATALOAD SWAP1 POP PUSH2 0x4B9 DUP2 PUSH2 0x493 JUMP JUMPDEST SWAP3 SWAP2 POP POP JUMP JUMPDEST PUSH1 0x0 DUP1 REVERT JUMPDEST PUSH1 0x0 DUP1 REVERT JUMPDEST PUSH1 0x0 PUSH1 0x1F NOT PUSH1 0x1F DUP4 ADD AND SWAP1 POP SWAP2 SWAP1 POP JUMP JUMPDEST PUSH32 0x4E487B7100000000000000000000000000000000000000000000000000000000 PUSH1 0x0 MSTORE PUSH1 0x41 PUSH1 0x4 MSTORE PUSH1 0x24 PUSH1 0x0 REVERT JUMPDEST PUSH2 0x512 DUP3 PUSH2 0x4C9 JUMP JUMPDEST DUP2 ADD DUP2 DUP2 LT PUSH8 0xFFFFFFFFFFFFFFFF DUP3 GT OR ISZERO PUSH2 0x531 JUMPI PUSH2 0x530 PUSH2 0x4DA JUMP JUMPDEST JUMPDEST DUP1 PUSH1 0x40 MSTORE POP POP POP JUMP JUMPDEST PUSH1 0x0 PUSH2 0x544 PUSH2 0x421 JUMP JUMPDEST SWAP1 POP PUSH2 0x550 DUP3 DUP3 PUSH2 0x509 JUMP JUMPDEST SWAP2 SWAP1 POP JUMP JUMPDEST PUSH1 0x0 PUSH8 0xFFFFFFFFFFFFFFFF DUP3 GT ISZERO PUSH2 0x570 JUMPI PUSH2 0x56F PUSH2 0x4DA JUMP JUMPDEST JUMPDEST PUSH2 0x579 DUP3 PUSH2 0x4C9 JUMP JUMPDEST SWAP1 POP PUSH1 0x20 DUP2 ADD SWAP1 POP SWAP2 SWAP1 POP JUMP JUMPDEST DUP3 DUP2 DUP4 CALLDATACOPY PUSH1 0x0 DUP4 DUP4 ADD MSTORE POP POP POP JUMP JUMPDEST PUSH1 0x0 PUSH2 0x5A8 PUSH2 0x5A3 DUP5 PUSH2 0x555 JUMP JUMPDEST PUSH2 0x53A JUMP JUMPDEST SWAP1 POP DUP3 DUP2 MSTORE PUSH1 0x20 DUP2 ADD DUP5 DUP5 DUP5 ADD GT ISZERO PUSH2 0x5C4 JUMPI PUSH2 0x5C3 PUSH2 0x4C4 JUMP JUMPDEST JUMPDEST PUSH2 0x5CF DUP5 DUP3 DUP6 PUSH2 0x586 JUMP JUMPDEST POP SWAP4 SWAP3 POP POP POP JUMP JUMPDEST PUSH1 0x0 DUP3 PUSH1 0x1F DUP4 ADD SLT PUSH2 0x5EC JUMPI PUSH2 0x5EB PUSH2 0x4BF JUMP JUMPDEST JUMPDEST DUP2 CALLDATALOAD PUSH2 0x5FC DUP5 DUP3 PUSH1 0x20 DUP7 ADD PUSH2 0x595 JUMP JUMPDEST SWAP2 POP POP SWAP3 SWAP2 POP POP JUMP JUMPDEST PUSH1 0x0 DUP1 PUSH1 0x0 PUSH1 0x60 DUP5 DUP7 SUB SLT ISZERO PUSH2 0x61E JUMPI PUSH2 0x61D PUSH2 0x42B JUMP JUMPDEST JUMPDEST PUSH1 0x0 PUSH2 0x62C DUP7 DUP3 DUP8 ADD PUSH2 0x47E JUMP JUMPDEST SWAP4 POP POP PUSH1 0x20 PUSH2 0x63D DUP7 DUP3 DUP8 ADD PUSH2 0x4AA JUMP JUMPDEST SWAP3 POP POP PUSH1 0x40 DUP5 ADD CALLDATALOAD PUSH8 0xFFFFFFFFFFFFFFFF DUP2 GT ISZERO PUSH2 0x65E JUMPI PUSH2 0x65D PUSH2 0x430 JUMP JUMPDEST JUMPDEST PUSH2 0x66A DUP7 DUP3 DUP8 ADD PUSH2 0x5D7 JUMP JUMPDEST SWAP2 POP POP SWAP3 POP SWAP3 POP SWAP3 JUMP JUMPDEST PUSH1 0x0 DUP2 MLOAD SWAP1 POP SWAP2 SWAP1 POP JUMP JUMPDEST PUSH1 0x0 DUP3 DUP3 MSTORE PUSH1 0x20 DUP3 ADD SWAP1 POP SWAP3 SWAP2 POP POP JUMP JUMPDEST PUSH1 0x0 DUP2 SWAP1 POP PUSH1 0x20 DUP3 ADD SWAP1 POP SWAP2 SWAP1 POP JUMP JUMPDEST PUSH1 0x0 PUSH2 0x6AB DUP3 PUSH2 0x435 JUMP JUMPDEST SWAP1 POP SWAP2 SWAP1 POP JUMP JUMPDEST PUSH2 0x6BB DUP2 PUSH2 0x6A0 JUMP JUMPDEST DUP3 MSTORE POP POP JUMP JUMPDEST PUSH2 0x6CA DUP2 PUSH2 0x3ED JUMP JUMPDEST DUP3 MSTORE POP POP JUMP JUMPDEST PUSH1 0x0 DUP2 MLOAD SWAP1 POP SWAP2 SWAP1 POP JUMP JUMPDEST PUSH1 0x0 DUP3 DUP3 MSTORE PUSH1 0x20 DUP3 ADD SWAP1 POP SWAP3 SWAP2 POP POP JUMP JUMPDEST PUSH1 0x0 JUMPDEST DUP4 DUP2 LT ISZERO PUSH2 0x70A JUMPI DUP1 DUP3 ADD MLOAD DUP2 DUP5 ADD MSTORE PUSH1 0x20 DUP2 ADD SWAP1 POP PUSH2 0x6EF JUMP JUMPDEST PUSH1 0x0 DUP5 DUP5 ADD MSTORE POP POP POP POP JUMP JUMPDEST PUSH1 0x0 PUSH2 0x721 DUP3 PUSH2 0x6D0 JUMP JUMPDEST PUSH2 0x72B DUP2 DUP6 PUSH2 0x6DB JUMP JUMPDEST SWAP4 POP PUSH2 0x73B DUP2 DUP6 PUSH1 0x20 DUP7 ADD PUSH2 0x6EC JUMP JUMPDEST PUSH2 0x744 DUP2 PUSH2 0x4C9 JUMP JUMPDEST DUP5 ADD SWAP2 POP POP SWAP3 SWAP2 POP POP JUMP JUMPDEST PUSH1 0x0 PUSH1 0xA0 DUP4 ADD PUSH1 0x0 DUP4 ADD MLOAD PUSH2 0x767 PUSH1 0x0 DUP7 ADD DUP3 PUSH2 0x6B2 JUMP JUMPDEST POP PUSH1 0x20 DUP4 ADD MLOAD PUSH2 0x77A PUSH1 0x20 DUP7 ADD DUP3 PUSH2 0x6B2 JUMP JUMPDEST POP PUSH1 0x40 DUP4 ADD MLOAD PUSH2 0x78D PUSH1 0x40 DUP7 ADD DUP3 PUSH2 0x6C1 JUMP JUMPDEST POP PUSH1 0x60 DUP4 ADD MLOAD DUP5 DUP3 SUB PUSH1 0x60 DUP7 ADD MSTORE PUSH2 0x7A5 DUP3 DUP3 PUSH2 0x716 JUMP JUMPDEST SWAP2 POP POP PUSH1 0x80 DUP4 ADD MLOAD PUSH2 0x7BA PUSH1 0x80 DUP7 ADD DUP3 PUSH2 0x6C1 JUMP JUMPDEST POP DUP1 SWAP2 POP POP SWAP3 SWAP2 POP POP JUMP JUMPDEST PUSH1 0x0 PUSH2 0x7D1 DUP4 DUP4 PUSH2 0x74F JUMP JUMPDEST SWAP1 POP SWAP3 SWAP2 POP POP JUMP JUMPDEST PUSH1 0x0 PUSH1 0x20 DUP3 ADD SWAP1 POP SWAP2 SWAP1 POP JUMP JUMPDEST PUSH1 0x0 PUSH2 0x7F1 DUP3 PUSH2 0x674 JUMP JUMPDEST PUSH2 0x7FB DUP2 DUP6 PUSH2 0x67F JUMP JUMPDEST SWAP4 POP DUP4 PUSH1 0x20 DUP3 MUL DUP6 ADD PUSH2 0x80D DUP6 PUSH2 0x690 JUMP JUMPDEST DUP1 PUSH1 0x0 JUMPDEST DUP6 DUP2 LT ISZERO PUSH2 0x849 JUMPI DUP5 DUP5 SUB DUP10 MSTORE DUP2 MLOAD PUSH2 0x82A DUP6 DUP3 PUSH2 0x7C5 JUMP JUMPDEST SWAP5 POP PUSH2 0x835 DUP4 PUSH2 0x7D9 JUMP JUMPDEST SWAP3 POP PUSH1 0x20 DUP11 ADD SWAP10 POP POP PUSH1 0x1 DUP2 ADD SWAP1 POP PUSH2 0x811 JUMP JUMPDEST POP DUP3 SWAP8 POP DUP8 SWAP6 POP POP POP POP POP POP SWAP3 SWAP2 POP POP JUMP JUMPDEST PUSH1 0x0 PUSH1 0x20 DUP3 ADD SWAP1 POP DUP2 DUP2 SUB PUSH1 0x0 DUP4 ADD MSTORE PUSH2 0x875 DUP2 DUP5 PUSH2 0x7E6 JUMP JUMPDEST SWAP1 POP SWAP3 SWAP2 POP POP JUMP JUMPDEST PUSH32 0x4E487B7100000000000000000000000000000000000000000000000000000000 PUSH1 0x0 MSTORE PUSH1 0x11 PUSH1 0x4 MSTORE PUSH1 0x24 PUSH1 0x0 REVERT JUMPDEST PUSH1 0x0 PUSH2 0x8B7 DUP3 PUSH2 0x3ED JUMP JUMPDEST SWAP2 POP PUSH2 0x8C2 DUP4 PUSH2 0x3ED JUMP JUMPDEST SWAP3 POP DUP3 DUP3 ADD SWAP1 POP DUP1 DUP3 GT ISZERO PUSH2 0x8DA JUMPI PUSH2 0x8D9 PUSH2 0x87D JUMP JUMPDEST JUMPDEST SWAP3 SWAP2 POP POP JUMP JUMPDEST PUSH32 0x4E487B7100000000000000000000000000000000000000000000000000000000 PUSH1 0x0 MSTORE PUSH1 0x22 PUSH1 0x4 MSTORE PUSH1 0x24 PUSH1 0x0 REVERT JUMPDEST PUSH1 0x0 PUSH1 0x2 DUP3 DIV SWAP1 POP PUSH1 0x1 DUP3 AND DUP1 PUSH2 0x927 JUMPI PUSH1 0x7F DUP3 AND SWAP2 POP JUMPDEST PUSH1 0x20 DUP3 LT DUP2 SUB PUSH2 0x93A JUMPI PUSH2 0x939 PUSH2 0x8E0 JUMP JUMPDEST JUMPDEST POP SWAP2 SWAP1 POP JUMP JUMPDEST PUSH1 0x0 DUP2 SWAP1 POP DUP2 PUSH1 0x0 MSTORE PUSH1 0x20 PUSH1 0x0 KECCAK256 SWAP1 POP SWAP2 SWAP1 POP JUMP JUMPDEST PUSH1 0x0 PUSH1 0x20 PUSH1 0x1F DUP4 ADD DIV SWAP1 POP SWAP2 SWAP1 POP JUMP JUMPDEST PUSH1 0x0 DUP3 DUP3 SHL SWAP1 POP SWAP3 SWAP2 POP POP JUMP JUMPDEST PUSH1 0x0 PUSH1 0x8 DUP4 MUL PUSH2 0x9A2 PUSH32 0xFFFFFFFFFFFFFFFFFFFFFFFFFFFFFFFFFFFFFFFFFFFFFFFFFFFFFFFFFFFFFFFF DUP3 PUSH2 0x965 JUMP JUMPDEST PUSH2 0x9AC DUP7 DUP4 PUSH2 0x965 JUMP JUMPDEST SWAP6 POP DUP1 NOT DUP5 AND SWAP4 POP DUP1 DUP7 AND DUP5 OR SWAP3 POP POP POP SWAP4 SWAP3 POP POP POP JUMP JUMPDEST PUSH1 0x0 DUP2 SWAP1 POP SWAP2 SWAP1 POP JUMP JUMPDEST PUSH1 0x0 PUSH2 0x9E9 PUSH2 0x9E4 PUSH2 0x9DF DUP5 PUSH2 0x3ED JUMP JUMPDEST PUSH2 0x9C4 JUMP JUMPDEST PUSH2 0x3ED JUMP JUMPDEST SWAP1 POP SWAP2 SWAP1 POP JUMP JUMPDEST PUSH1 0x0 DUP2 SWAP1 POP SWAP2 SWAP1 POP JUMP JUMPDEST PUSH2 0xA03 DUP4 PUSH2 0x9CE JUMP JUMPDEST PUSH2 0xA17 PUSH2 0xA0F DUP3 PUSH2 0x9F0 JUMP JUMPDEST DUP5 DUP5 SLOAD PUSH2 0x972 JUMP JUMPDEST DUP3 SSTORE POP POP POP POP JUMP JUMPDEST PUSH1 0x0 SWAP1 JUMP JUMPDEST PUSH2 0xA2C PUSH2 0xA1F JUMP JUMPDEST PUSH2 0xA37 DUP2 DUP5 DUP5 PUSH2 0x9FA JUMP JUMPDEST POP POP POP JUMP JUMPDEST JUMPDEST DUP2 DUP2 LT ISZERO PUSH2 0xA5B JUMPI PUSH2 0xA50 PUSH1 0x0 DUP3 PUSH2 0xA24 JUMP JUMPDEST PUSH1 0x1 DUP2 ADD SWAP1 POP PUSH2 0xA3D JUMP JUMPDEST POP POP JUMP JUMPDEST PUSH1 0x1F DUP3 GT ISZERO PUSH2 0xAA0 JUMPI PUSH2 0xA71 DUP2 PUSH2 0x940 JUMP JUMPDEST PUSH2 0xA7A DUP5 PUSH2 0x955 JUMP JUMPDEST DUP2 ADD PUSH1 0x20 DUP6 LT ISZERO PUSH2 0xA89 JUMPI DUP2 SWAP1 POP JUMPDEST PUSH2 0xA9D PUSH2 0xA95 DUP6 PUSH2 0x955 JUMP JUMPDEST DUP4 ADD DUP3 PUSH2 0xA3C JUMP JUMPDEST POP POP JUMPDEST POP POP POP JUMP JUMPDEST PUSH1 0x0 DUP3 DUP3 SHR SWAP1 POP SWAP3 SWAP2 POP POP JUMP JUMPDEST PUSH1 0x0 PUSH2 0xAC3 PUSH1 0x0 NOT DUP5 PUSH1 0x8 MUL PUSH2 0xAA5 JUMP JUMPDEST NOT DUP1 DUP4 AND SWAP2 POP POP SWAP3 SWAP2 POP POP JUMP JUMPDEST PUSH1 0x0 PUSH2 0xADC DUP4 DUP4 PUSH2 0xAB2 JUMP JUMPDEST SWAP2 POP DUP3 PUSH1 0x2 MUL DUP3 OR SWAP1 POP SWAP3 SWAP2 POP POP JUMP JUMPDEST PUSH2 0xAF5 DUP3 PUSH2 0x6D0 JUMP JUMPDEST PUSH8 0xFFFFFFFFFFFFFFFF DUP2 GT ISZERO PUSH2 0xB0E JUMPI PUSH2 0xB0D PUSH2 0x4DA JUMP JUMPDEST JUMPDEST PUSH2 0xB18 DUP3 SLOAD PUSH2 0x90F JUMP JUMPDEST PUSH2 0xB23 DUP3 DUP3 DUP6 PUSH2 0xA5F JUMP JUMPDEST PUSH1 0x0 PUSH1 0x20 SWAP1 POP PUSH1 0x1F DUP4 GT PUSH1 0x1 DUP2 EQ PUSH2 0xB56 JUMPI PUSH1 0x0 DUP5 ISZERO PUSH2 0xB44 JUMPI DUP3 DUP8 ADD MLOAD SWAP1 POP JUMPDEST PUSH2 0xB4E DUP6 DUP3 PUSH2 0xAD0 JUMP JUMPDEST DUP7 SSTORE POP PUSH2 0xBB6 JUMP JUMPDEST PUSH1 0x1F NOT DUP5 AND PUSH2 0xB64 DUP7 PUSH2 0x940 JUMP JUMPDEST PUSH1 0x0 JUMPDEST DUP3 DUP2 LT ISZERO PUSH2 0xB8C JUMPI DUP5 DUP10 ADD MLOAD DUP3 SSTORE PUSH1 0x1 DUP3 ADD SWAP2 POP PUSH1 0x20 DUP6 ADD SWAP5 POP PUSH1 0x20 DUP2 ADD SWAP1 POP PUSH2 0xB67 JUMP JUMPDEST DUP7 DUP4 LT ISZERO PUSH2 0xBA9 JUMPI DUP5 DUP10 ADD MLOAD PUSH2 0xBA5 PUSH1 0x1F DUP10 AND DUP3 PUSH2 0xAB2 JUMP JUMPDEST DUP4 SSTORE POP JUMPDEST PUSH1 0x1 PUSH1 0x2 DUP9 MUL ADD DUP9 SSTORE POP POP POP JUMPDEST POP POP POP POP POP POP JUMP JUMPDEST PUSH2 0xBC7 DUP2 PUSH2 0x6A0 JUMP JUMPDEST DUP3 MSTORE POP POP JUMP JUMPDEST PUSH1 0x0 PUSH2 0xBE8 PUSH2 0xBE3 PUSH2 0xBDE DUP5 PUSH2 0x435 JUMP JUMPDEST PUSH2 0x9C4 JUMP JUMPDEST PUSH2 0x435 JUMP JUMPDEST SWAP1 POP SWAP2 SWAP1 POP JUMP JUMPDEST PUSH1 0x0 PUSH2 0xBFA DUP3 PUSH2 0xBCD JUMP JUMPDEST SWAP1 POP SWAP2 SWAP1 POP JUMP JUMPDEST PUSH1 0x0 PUSH2 0xC0C DUP3 PUSH2 0xBEF JUMP JUMPDEST SWAP1 POP SWAP2 SWAP1 POP JUMP JUMPDEST PUSH2 0xC1C DUP2 PUSH2 0xC01 JUMP JUMPDEST DUP3 MSTORE POP POP JUMP JUMPDEST PUSH1 0x0 DUP3 DUP3 MSTORE PUSH1 0x20 DUP3 ADD SWAP1 POP SWAP3 SWAP2 POP POP JUMP JUMPDEST PUSH1 0x0 PUSH2 0xC3E DUP3 PUSH2 0x6D0 JUMP JUMPDEST PUSH2 0xC48 DUP2 DUP6 PUSH2 0xC22 JUMP JUMPDEST SWAP4 POP PUSH2 0xC58 DUP2 DUP6 PUSH1 0x20 DUP7 ADD PUSH2 0x6EC JUMP JUMPDEST PUSH2 0xC61 DUP2 PUSH2 0x4C9 JUMP JUMPDEST DUP5 ADD SWAP2 POP POP SWAP3 SWAP2 POP POP JUMP JUMPDEST PUSH1 0x0 PUSH1 0xA0 DUP3 ADD SWAP1 POP PUSH2 0xC81 PUSH1 0x0 DUP4 ADD DUP9 PUSH2 0xBBE JUMP JUMPDEST PUSH2 0xC8E PUSH1 0x20 DUP4 ADD DUP8 PUSH2 0xC13 JUMP JUMPDEST PUSH2 0xC9B PUSH1 0x40 DUP4 ADD DUP7 PUSH2 0x3F7 JUMP JUMPDEST PUSH2 0xCA8 PUSH1 0x60 DUP4 ADD DUP6 PUSH2 0x3F7 JUMP JUMPDEST DUP2 DUP2 SUB PUSH1 0x80 DUP4 ADD MSTORE PUSH2 0xCBA DUP2 DUP5 PUSH2 0xC33 JUMP JUMPDEST SWAP1 POP SWAP7 SWAP6 POP POP POP POP POP POP JUMP INVALID LOG2 PUSH5 0x6970667358 0x22 SLT KECCAK256 0x2C 0xBF DUP3 GASPRICE 0xB3 ADDMOD 0x23 SWAP3 EXTCODEHASH PUSH27 0x8329DB553831F32ED80672CD2404AA381DB2503269B664736F6C63 NUMBER STOP ADDMOD SHL STOP CALLER "
        },
        "methodIdentifiers": {
          "blockformation(address,uint256,string)": "d3177fbe",
          "getallTransaction()": "e60ab1c4",
          "gettransaction()": "8f14f715"
        }
      }
    }
  }
}